:100000000C9424010C944C010C944C010C94690345
:100010000C9469030C9469030C944C010C944C01EE
:100020000C944C010C944C010C944C010C944C011C
:100030000C944C010C944C010C944C010C944C010C
:100040000C944F040C944C010C94BF040C94990430
:100050000C944C010C944C010C944C010C944C01EC
:100060000C944C010C944C01536F6E6F20696E2000
:1000700052656C61792073696D756C6174696F6E1E
:10008000206D6F646500707265706172696E6720C3
:10009000726573706F6E7365206D657373616765EC
:1000A0002E2E2E2000202D206572726F7265206E1C
:1000B0006F6E206964656E746966696361746F3A16
:1000C00020007263766452436F64653A200000003A
:1000D0000000240027002A000000000800020100A0
:1000E000000304070000000000000000434D44200E
:1000F00020726177202D202020202020005D202DDF
:10010000200066756C6C20726177202D206C656E06
:100110003A5B00434D442F737562434D44202030B9
:1001200078203A2000434D445F52436F646520209D
:10013000203078203A20005345514E4F2020202077
:100140002020203078203A2000435243205265631B
:100150002F43616C203078203A20005D202D200054
:10016000636F6D6D616E64446174612061736320BF
:100170002D206C656E3A5B005D202D2000636F6D55
:100180006D616E644461746120686578202D206C17
:10019000656E3A5B005D202D200066756C6C4461D5
:1001A000746120202020686578202D206C656E3ACF
:1001B0005B00202D205B72637664436F64653A2098
:1001C00000202D205B69742773204E4F5420666FEA
:1001D00072206D652E2E2E5D00202D205B574F570F
:1001E000206974277320666F72206D652E2E2E5D38
:1001F00000202D205365714E4F3A20002D2D3E30AA
:100200007800202D20307800000000002500280014
:100210002B00000000002300260029000404040431
:1002200004040404020202020202030303030303A0
:10023000010204081020408001020408102001027D
:100240000408102025101B1011241FBECFEFD8E08A
:10025000DEBFCDBF12E0A0E0B1E0ECE9F2E202C007
:1002600005900D92A43AB107D9F724E0A4EAB2E0D0
:1002700001C01D92A63CB207E1F711E0C3E2D1E054
:1002800004C02197FE010E942E11C232D107C9F786
:100290000E94960B0C9441110C940000E091F00226
:1002A000F091F102E817F90769F4A389B4899C91E8
:1002B0008589809589238C931092F1021092F00227
:1002C00081E0089580E00895833081F028F4813042
:1002D00099F08230A1F008958730A9F08830B9F004
:1002E0008430D1F4809180008F7D03C080918000A4
:1002F0008F7780938000089584B58F7702C084B58E
:100300008F7D84BD08958091B0008F7703C0809168
:10031000B0008F7D8093B0000895CF93DF93282F96
:1003200030E0F901E852FF4F8491F901E05DFD4FA3
:10033000D491F901E45EFD4FC491CC2391F0811179
:100340000E946401EC2FF0E0EE0FFF1FEE5EFD4F08
:10035000A591B491EC91ED2381E090E021F480E04F
:1003600002C080E090E0DF91CF9108953FB7F8940C
:100370008091AA029091AB02A091AC02B091AD0223
:1003800026B5A89B05C02F3F19F00196A11DB11DF0
:100390003FBFBA2FA92F982F8827820F911DA11D2B
:1003A000B11DBC01CD0142E0660F771F881F991F68
:1003B0004A95D1F708958F929F92AF92BF92CF92B4
:1003C000DF92EF92FF926B017C010E94B6014B011C
:1003D0005C01C114D104E104F104F1F00E94B60102
:1003E000DC01CB0188199909AA09BB09883E934011
:1003F000A105B10570F321E0C21AD108E108F108A6
:1004000088EE880E83E0981EA11CB11CC114D10493
:10041000E104F10419F7DDCFFF90EF90DF90CF906A
:10042000BF90AF909F908F900895CF92DF92EF9200
:10043000FF920F931F93CF93DF936C017A018B018F
:10044000C0E0D0E0CE15DF0589F0D8016D918D01B7
:10045000D601ED91FC910190F081E02DC601099546
:10046000892B11F47E0102C02196ECCFC701DF91E8
:10047000CF911F910F91FF90EF90DF90CF90089553
:10048000089580E090E00895FC01538D448D252F60
:1004900030E0842F90E0821B930B541710F0CF961E
:1004A000089501970895FC01918D828D981761F050
:1004B000828DDF01A80FB11D5D968C91928D9F5F9B
:1004C0009F73928F90E008958FEF9FEF0895FC0146
:1004D000918D828D981731F0828DE80FF11D858DF9
:1004E00090E008958FEF9FEF0895FC01918D228D8C
:1004F000892F90E0805C9F4F821B91098F73992711
:10050000089586EF92E00E94750221E0892B09F49C
:1005100020E0822F0895FC01848DDF01A80FB11D1A
:10052000A35ABF4F2C91848D90E001968F73992729
:10053000848FA689B7892C93A089B1898C91806416
:100540008C93938D848D981306C00288F389E02DD7
:1005500080818F7D80830895EF92FF920F931F9388
:10056000CF93DF93EC0181E0888F9B8D8C8D981366
:1005700005C0E889F989808185FD24C0F62E0B8DA0
:1005800010E00F5F1F4F0F731127E02E8C8DE812C4
:100590000CC00FB607FCFACFE889F989808185FF86
:1005A000F5CFCE010E948B02F1CF8B8DFE01E80FBB
:1005B000F11DE35AFF4FF0820B8FEA89FB8980819E
:1005C000806207C0EE89FF896083E889F9898081AC
:1005D0008064808381E090E0DF91CF911F910F9143
:1005E000FF90EF900895CF93DF93EC01888D8823DF
:1005F000C9F0EA89FB89808185FD05C0A889B98990
:100600008C9186FD0FC00FB607FCF5CF808185FF6A
:10061000F2CFA889B9898C9185FFEDCFCE010E94D8
:100620008B02E7CFDF91CF91089580E090E0892B96
:1006300029F00E94810281110C9400000895EF922C
:10064000FF920F931F93CF9392EF980F8E3008F085
:10065000892F8770C82FC0648AE0E82EF12C00E053
:1006600010E0C0937C0080917A00806480937A00CF
:1006700080917A0086FDFCCF2091780080917900EE
:1006800030E0382B020F131F64E670E080E090E04A
:100690000E94DB0181E0E81AF10819F7C8016AE05D
:1006A00070E00E94F810CB01CF911F910F91FF9045
:1006B000EF900895682F83E993E00C94D50583E9C2
:1006C00093E00C94290683E993E00C9441060E9480
:1006D00034111F920F920FB60F9211242F933F9354
:1006E0004F935F936F937F938F939F93AF93BF933A
:1006F000EF93FF93E091F002F091F102309709F44B
:1007000051C0968DA685B785858591FF04C09C91C3
:10071000892329F447C09C91892309F043C0A38908
:10072000B4899C918589809589238C938689978942
:100730000197F1F7608D718DA685B785558538E0F5
:1007400020E0CB010197F1F7822F90E095958795F6
:10075000282F4C91452309F02068315091F7868D60
:1007600081FD20958091EE0290E001968F7399278C
:100770003091EF02381749F0A091EE02B0E0A25597
:10078000BD4F2C938093EE0203C0868D8160868FCF
:10079000828D938D0197F1F7A389B4899C91858906
:1007A000892B8C93FF91EF91BF91AF919F918F9186
:1007B0007F916F915F914F913F912F910F900FBE5D
:1007C0000F901F9018951F93CF93DF93282F30E041
:1007D000F901E852FF4F8491F901E05DFD4FD4919A
:1007E000F901E45EFD4FC491CC23C9F0162F8111AD
:1007F0000E946401EC2FF0E0EE0FFF1FE85FFD4F59
:10080000A591B4918FB7F894111105C09C91ED2F6B
:10081000E095E92302C0EC91ED2BEC938FBFDF91C3
:10082000CF911F910895CF93DF9390E0FC01E05D9D
:10083000FD4F2491FC01E45EFD4F8491882361F11A
:1008400090E0880F991FFC01E253FF4FC591D491AE
:10085000FC01E85FFD4FA591B491611109C09FB7FC
:10086000F8948881209582238883EC912E230BC0F5
:10087000623061F49FB7F8943881822F809583238A
:100880008883EC912E2B2C939FBF06C08FB7F894D2
:10089000E8812E2B28838FBFDF91CF9108951F927F
:1008A0000F920FB60F9211242F933F938F939F9324
:1008B000AF93BF938091F2029091F302A091F40262
:1008C000B091F5023091A90223E0230F2D3720F4D7
:1008D0000196A11DB11D05C026E8230F0296A11D9A
:1008E000B11D2093A9028093F2029093F302A0938A
:1008F000F402B093F5028091AA029091AB02A0910C
:10090000AC02B091AD020196A11DB11D8093AA0267
:100910009093AB02A093AC02B093AD02BF91AF91A4
:100920009F918F913F912F910F900FBE0F901F902D
:1009300018951F920F920FB60F9211242F933F9389
:100940004F935F936F937F938F939F93AF93BF93D7
:10095000EF93FF9386EF92E00E948B02FF91EF915D
:10096000BF91AF919F918F917F916F915F914F91C7
:100970003F912F910F900FBE0F901F9018951F92CF
:100980000F920FB60F9211242F938F939F93EF9393
:10099000FF93E0910603F09107038081E0910C033F
:1009A000F0910D0382FD12C0908180910F038F5F43
:1009B0008F7320911003821751F0E0910F03F0E044
:1009C000EA50FD4F958F80930F0301C08081FF9106
:1009D000EF919F918F912F910F900FBE0F901F90CD
:1009E0001895CF93DF93CDB7DEB761970FB6F89424
:1009F000DEBF0FBECDBF21E1E4E1F2E0DE011196E2
:100A000001900D922A95E1F7ACEBB4E012961C929E
:100A10001297BC0124E0769567952A95E1F79C0131
:100A20002F70332741E050E04C0F5D1F240F351F1E
:100A3000F901208111962C931197892F9927E4E0D1
:100A4000880F991FEA95E1F7FB01E81BF90BE40F0A
:100A5000F51F80818C93CD0161960FB6F894DEBFAF
:100A60000FBECDBFDF91CF910895CF93DF9310924A
:100A7000BB04EAEBF4E0262F2E1BCAE0D0E0322FB5
:100A80003E0F009741F0BE010E94E410805D80831C
:100A9000CB013197F4CF832FDF01119690E3815082
:100AA00010F09E93FCCF81E090E0831B91098E0FA4
:100AB0009F1FDF91CF910895DF92EF92FF920F93E6
:100AC0001F93CF93DF93182FEB01282F30E084E0A2
:100AD000359527958A95E1F70FE0822F802794E0DE
:100AE000220F331F9A95E1F7D82ED22A8D2D0E941E
:100AF0005A037E0128E7E20EF11CF70180818F5F27
:100B00008083FE01E80FF11DE858FF4FD0821F706F
:100B1000F0E11F9FC00111241027182B812F0E9484
:100B20005A03F70180818F5F8083C80FD11DC85899
:100B3000DF4F1883DF91CF911F910F91FF90EF90BE
:100B4000DF900895582FFC0180E07CE89E2F951BD4
:100B5000961788F4419198E0A42FA827282F30E019
:100B600035952795822FA0FF02C0872F82274695B3
:100B7000915091F7EBCF08952091F0023091F1025E
:100B80002817390771F49091EF028091EE029817BF
:100B900041F0E091EF02F0E0E255FD4F808190E0FE
:100BA00008958FEF9FEF089508951F93CF93DF93DC
:100BB000DC015C962D913C915D972115310539F44E
:100BC00081E090E013969C938E9312973DC05196CE
:100BD000ED91FC91529750969C915097892F80955A
:100BE0001FB75E964C915E9741FB772770F941FDE8
:100BF0006095F8944081772311F0492B01C0482378
:100C00004083E9012197F1F748E0508160FF02C07D
:100C1000592B01C058235083E9012197F1F76695BC
:100C2000415099F7772321F090818923808303C075
:100C30008081982B90831FBF5C968D919C915D97CE
:100C40000197F1F721E030E0C901DF91CF911F91C9
:100C500008952091F0023091F1022817390771F4BC
:100C60008091EE022091EF0290E0805C9F4F821B0A
:100C7000910960E470E00E94F810089580E090E02F
:100C800008952091F0023091F10228173907B9F444
:100C90009091EF028091EE02981789F0E091EF02B7
:100CA000F0E0E255FD4F80812091EF0230E02F5FB0
:100CB0003F4F2F7333272093EF0290E008958FEF7B
:100CC0009FEF0895009769F0FC0101900020E9F77B
:100CD0003197AF01481B590BBC0186EF92E00C9491
:100CE000150280E090E008950C946206EF92FF9266
:100CF0001F93CF93DF931F92CDB7DEB7611107C06B
:100D0000382FFC016E2F631B21912111FBCF182F6F
:100D10007C018E2D811B861788F4F70181917F015C
:100D2000082E000C990B69830E94F1040E9474063E
:100D30008BE392E00E9474066981EBCF81E791E03A
:100D40000F90DF91CF911F91FF90EF900C9474065C
:100D5000CF93DF931F92CDB7DEB769830E947406ED
:100D60006981862F90E00E94F1040E94740681E759
:100D700091E00F90DF91CF910C94740690E00E9467
:100D8000F1040C9474060F931F93CF93DF938C019F
:100D9000C0E0D0E0F801EC0FFD1F6491662371F014
:100DA000E091F602F091F7020190F081E02D86EFDC
:100DB00092E00995892B11F02196ECCFCE01DF91BD
:100DC000CF911F910F91089586E492E00C946206F2
:100DD000E091F602F091F7020190F081E02D682F8A
:100DE00086EF92E00994CF93DF930E94C306EC0153
:100DF0000E94E4068C0F9D1FDF91CF9108950F9301
:100E00001F93CF93DF938B01EA010E947406C80100
:100E10000E947406CE010E94740681E791E00E9450
:100E2000740681E791E00E94740681E791E0DF910A
:100E3000CF911F910F910C9474068F929F92AF9255
:100E4000BF920F931F93CF93DF93CDB7DEB7A197D8
:100E50000FB6F894DEBF0FBECDBF19A2423008F422
:100E60004AE08E010F5D1F4F842E912CA12CB12CD6
:100E7000A50194010E940C11E62FB901CA0101508D
:100E80001109EA3014F4E05D01C0E95CD801EC938B
:100E9000232B242B252B61F7C8010E946206A19603
:100EA0000FB6F894DEBF0FBECDBFDF91CF911F917B
:100EB0000F91BF90AF909F908F900895CF93DF9345
:100EC000DC01FB01EC012896485F98E0941305C013
:100ED00041504C93DF91CF910895943421F09F5F5E
:100EE00081918993F3CF44E4F3CF2F923F924F92B5
:100EF0005F926F927F928F929F92AF92BF92CF92AA
:100F0000DF92EF92FF920F931F93CF93DF9300D066
:100F100000D000D0CDB7DEB726E0E7E3F2E0DE0197
:100F2000119601900D922A95E1F7FA01E850FF4FD2
:100F30004080DA01AA50BF4F33973C912081230FA4
:100F40006A0137EFC30ED11CF6013081230F240D47
:100F500009F496C1FC012081243539F47A01FCE3BF
:100F6000EF0EF11CFA0154AC06C0223509F088C11D
:100F70007A01FA0150808A01262E5C013A01F8E7D5
:100F80006F0E711CF3013080552009F436C1F70152
:100F900084818380912C982C8824880E911C0E9437
:100FA000E406F801E650FF4F808191810E947406AB
:100FB000C5010E94740682E092E00E94C306F70118
:100FC00081810E94BE068CEF91E00E94C306F7016A
:100FD00082810E94BE0681EF91E00E94C30665E017
:100FE000C4010E9435050E947406F801E750FF4FC6
:100FF000208191E0F7018181281390E081E0F701E1
:101000003281231380E0890F39F089ED91E00E944D
:10101000C306DD24D39406C081EC91E00E94C30690
:10102000F601D080F5018081823589F482EB91E070
:101030000E94C306E22DF0E0EE0FFF1FE85EFE4FB8
:10104000808191810E9474068DE50E94E806DD2072
:1010500009F4D3C00E94E406CE0101960E947406F2
:101060008AE991E00E94C30663E0852D90E00E942A
:1010700035050E94740685E991E00E94C306F701D8
:101080006081C70101960E947606F9EF5F0ECE01DE
:1010900001960E9474068DE791E00E94C306852C9C
:1010A000912C63E0C4010E9435050E94740688E714
:1010B00091E00E94C30695E1D92E80E20E94E806E5
:1010C000DA94D110FACF670128E0C20ED11C652D49
:1010D000C6010E947606CE0101960E94740680E643
:1010E00091E00E94C30663E0C4010E9435050E949E
:1010F00074068BE591E00E94C30685E1982E80E29C
:101100000E94E8069A949110FACF8BE50E94E806B7
:10111000511007C09C2DF6015E2E591A8191811144
:10112000FBCF2C2C4601882D8219851558F4F4012B
:1011300081914F0190EE980F9F3508F080E20E9458
:10114000E806F1CF8DE50E94E8060E94E406F5016D
:1011500080818235C9F4CE0101960E94740689E42B
:1011600091E00E94C306F801EC50FF4F80810E947D
:10117000BE068BE392E00E947406F801ED50FF4F2B
:1011800080810E94BE060CC0CE0101960E947406AA
:10119000F801EE50FF4F608185E292E00E94A806C0
:1011A000CE0101960E94740687E391E00E94C30677
:1011B00062E0C70103960E947606CE0101960E9466
:1011C000740685E291E00E94C306F70185810E94C2
:1011D000BE06CE0101960E94740683E191E00E9452
:1011E000C306F70186810E94BE068BE392E00E944F
:1011F0007406F70187810E94BE06442009F440C0AE
:101200003320F1F10E94E406CE0101960E9474069B
:1012100082E091E00E94C306F301808163E090E0E8
:101220000E9435050E9474068DEF90E00E94C3066F
:10123000CE0101960E947406F3016081C8018758AF
:101240009F4F0E9476060E94E406CE0101960E94FE
:1012500074068CEE90E00E94C306F301808163E087
:1012600090E00E9435050E947406CE0101960E940E
:1012700074066EEE630DC80188579F4F0E94760674
:1012800026960FB6F894DEBF0FBECDBFDF91CF918B
:101290001F910F91FF90EF90DF90CF90BF90AF9094
:1012A0009F908F907F906F905F904F903F902F9086
:1012B0000895BF92CF92DF92EF92FF920F931F9308
:1012C000CF93DF93CDB7DEB727970FB6F894DEBF85
:1012D0000FBECDBF8C0187E0EDE3F2E0DE01119699
:1012E00001900D928A95E1F7F801B4AC6B2DC8011D
:1012F000CD960E94A205C82EF801EE50FF4F8083C4
:101300007801F8E7EF0EF11CF701108282E00E94ED
:101310005A03F70190819F5F9083F801E90FF11D57
:10132000E858FF4F82E08083DD24D394BD1448F059
:10133000F801ED0DF11DB80184AD0E945C05D39458
:10134000F5CFB8018C2D0E945C0583E00E945A0302
:10135000F70180818F5F8083F801E80FF11DE85865
:10136000FF4F83E08083F801EB50FF4F808188239B
:1013700031F0A80160E0CE0101960E947507279622
:101380000FB6F894DEBF0FBECDBFDF91CF911F9196
:101390000F91FF90EF90DF90CF90BF9008952F9224
:1013A0003F924F925F926F927F928F929F92AF92F5
:1013B000BF92CF92DF92EF92FF920F931F93CF9342
:1013C000DF93CDB7DEB72A970FB6F894DEBF0FBE16
:1013D000CDBF8C0188E0E8E6F2E0DE0111960190D5
:1013E0000D928A95E1F78FB7F8942090F202309031
:1013F000F3024090F4025090F5028FBF780188E725
:10140000E80EF11CF7011082F8011082B12CA12C1A
:10141000C80184509F4F9A878987EB50FF4F4F0137
:101420003801FAEF6F0E711C2FB7F8948091F20219
:101430009091F302A091F402B091F5022FBF8219AE
:101440009309A409B509E985FA8540815181628132
:10145000738184179507A607B70708F0FBC00E94A1
:101460005F031816190604F70E9463036C01F70165
:1014700080818A3708F072C08F5F8083F801E80F9F
:10148000F11DE858FF4FC082C601992789369105A2
:1014900009F4B8C09CF58E31910509F4B3C0E4F4A9
:1014A0008330910509F455C08F30910509F4AAC025
:1014B000029709F0AEC081E0F70180838FB7F894FE
:1014C0002090F2023090F3024090F4025090F50226
:1014D0008FBFAA24A394A8CF8C33910509F492C09E
:1014E00024F48D9709F095C08DC08B34910509F4D3
:1014F00089C08A35910509F08CC084C0843B910570
:1015000009F480C09CF48738910509F47BC02CF461
:101510008837910509F07DC075C08639910509F4B9
:1015200071C0853A910509F074C06CC0823D910587
:1015300009F468C02CF4833C910509F06AC062C0CC
:10154000813E910509F45EC0803F910509F061C0BC
:1015500059C0F701508192E060E00EC0F801EB50F5
:10156000FF4F8081882309F482C0A80161E0CE0189
:1015700001960E9475077BC09517A8F46F5FD8018C
:10158000A60FB11D9801290F311DF901E758FF4F32
:101590008081482F42954F7031978081807F842BC6
:1015A0008C939E5FE9CFF801E60FF11DF080F80102
:1015B000EC50FF4FF0826150F8016193CF010E941F
:1015C000A205F801ED50FF4F808332968F1559F038
:1015D0008081882309F44DC0A80162E0CE01019604
:1015E0000E94750746C08081882309F444C084E4C2
:1015F00092E00E947406A80160E0CE0101960E946C
:10160000750739C0A11010CFF70180818150808308
:101610000BCFF701808181508083B11010C0F4019D
:101620008081882361F00E94E406F301808191812A
:101630000E9474066C2D89E492E00E94A806F401D1
:101640008081882329F06C2D8BE392E00E94A8060C
:10165000B394EACEF801EB50FF4F8081882369F004
:10166000A80164E0CE0101960E94750706C081E0E2
:1016700005C082E003C080E001C084E02A960FB676
:10168000F894DEBF0FBECDBFDF91CF911F910F91B8
:10169000FF90EF90DF90CF90BF90AF909F908F9092
:1016A0007F906F905F904F903F902F900895262FDE
:1016B000FC01A4E0B1E0059631913D93E817F907EC
:1016C000D9F763E0822F90E00E943505FC0180810C
:1016D00080930A01818180930B01828180930C01A8
:1016E0000895EF92FF920F931F93CF93DF937A01A8
:1016F0008C01C62FD0E0209791F0F80181918F01E5
:10170000082E000C990B0E94F1040E947406C1304F
:10171000D10519F0C7010E9474062197ECCFDF9123
:10172000CF911F910F91FF90EF900895CF93DF938A
:10173000CDB7DEB7C857D1090FB6F894DEBF0FBEDC
:10174000CDBF789484B5826084BD84B5816084BD4A
:1017500085B5826085BD85B5816085BD80916E004F
:10176000816080936E001092810080918100826080
:1017700080938100809181008160809381008091BD
:1017800080008160809380008091B10084608093AC
:10179000B1008091B00081608093B00080917A00A8
:1017A000846080937A0080917A00826080937A00CE
:1017B00080917A00816080937A0080917A008068BD
:1017C00080937A001092C10060E081E00E941304CF
:1017D00060E087E00E94130460E088E00E94130448
:1017E00061E08AE00E94130461E08BE00E94130430
:1017F00061E08CE00E94130461E08DE00E9413041C
:101800001092AE031092AD031092AC031092AB0392
:101810001092AA031092A9038DE991E09093B0036E
:101820008093AF0390919F03963108F057C02DEB42
:1018300030E03093AA032093A9032BE931E03093E1
:10184000AC032093AB032CE231E03093AE03209342
:10185000AD0320916800983050F031E09E3008F4DC
:1018600030E081E001C0880F3A95EAF701C084E0DA
:10187000822B80936800983038F09E3040F096318B
:1018800048F020E030E008C02DE630E005C02BE64F
:1018900030E002C02CE630E03093A7032093A6038B
:1018A000983030F481E001C0880F9A95EAF70EC0B5
:1018B000292F30E09E3018F42850310902C02E50F4
:1018C000310981E001C0880F2A95EAF78093A803C7
:1018D0008091AF039091B0030197F1F78091AD0330
:1018E0009091AE03892B21F18091F0029091F10249
:1018F00023E083399207E1F0009711F00E944E0136
:101900008091B1038E7F8093B1031092EE0210920A
:10191000EF0283E993E09093F1028093F002E0916B
:10192000A603F091A70390818091A803892B80835F
:1019300082EB93E09093A8028093A70261E084E099
:101940000E94130460E084E00E94E303E091060338
:10195000F091070382E08083E0910203F09103039A
:101960001082E0910403F09105038FEC80831092C4
:101970000E03E0910A03F0910B0386E08083E0916F
:101980000803F0910903808180618083E09108035E
:10199000F0910903808188608083E0910803F091D1
:1019A0000903808180688083E0910803F091090336
:1019B00080818F7D808380E090E00E943911809348
:1019C000A60257E0B52E60ED462E67E0562E612C3C
:1019D000712C0091A7021091A8026091A602F80153
:1019E000E750FF4F6083809100016B3008F0E3C047
:1019F000882359F08AE491E00E94570B81E091E03E
:101A0000F801E650FF4F91838083F801EB50FF4FC0
:101A100081E0808331968083319680833196108275
:101A200081E091E00E94740688E690E00E94F3064F
:101A30000091A7021091A802E9961FAEE9979CE0D9
:101A4000D92E21E3C22E36E0A32E78018CEFE80ECA
:101A5000F11C4AE1942EE9968FADE997811193C06C
:101A6000F8011182E9968FADE997D2828091A402A4
:101A70009091A502938384831582E6E9F1E0DE016B
:101A80005B968B2D01900D928A95E1F7F801C68245
:101A9000A782E9968FADE997E9968FADE997DB8E3E
:101AA00041E0BE01655E7F4FC8010E945E07F801FC
:101AB000908180E0F801E80FF11D208124AF8F5F55
:101AC0009817C0F761E084E00E94E303C8010E9418
:101AD000590960E084E00E94E303F70140825182EB
:101AE00062827382C8010E94CF09882E882361F127
:101AF000F801828181831282EDE9F1E0DE01119625
:101B0000892D01900D928A95E1F7E82DF0E0EE0F16
:101B1000FF1FE85EFE4F8081A82FB1812B2D281B6F
:101B2000922F9A0F8D91882341F0E1E0F0E0EC0FC5
:101B3000FD1FE90FF11D8083F3CF4AE1BE016F5F06
:101B40007F4FC8010E945E07F801908180E0F80194
:101B5000E80FF11D208124AF8F5F9817C0F7A8010F
:101B6000682D80E591E00E94750768E873E180E0E8
:101B700090E00E94DB01E9968FADE9978F5FE996CF
:101B80008FAFE99768CF8091A4029091A50201964A
:101B90009093A5028093A4020E94E40660E177E29C
:101BA00080E090E00E94DB0168EE73E080E090E06E
:101BB0000E94DB013BC28823C9F088E591E00E94C6
:101BC000570BE091A702F091A802E650FF4F81E089
:101BD00091E09183808381E0F801EB50FF4F808397
:101BE000319680833196108231961082C8010E940E
:101BF000CF09182FE090A702F090A802F7018111F9
:101C0000FFC1A1801085018592818091A602981361
:101C10000DC280E1E7EBF1E0DE01DB9601900D9271
:101C20008A95E1F780E1E7ECF1E0DE019B96019017
:101C30000D928A95E1F7E7EDF1E0DE01AF58BF4F75
:101C40008B2D01900D928A95E1F788E0EEEDF1E0A1
:101C5000DE01A759BF4F01900D928A95E1F78FE001
:101C6000E6EEF1E0DE01A65ABF4F01900D928A9593
:101C7000E1F78FE0E5EFF1E0DE01A55BBF4F0190FA
:101C80000D928A95E1F780E1E4E0F2E0DE015B96F7
:101C900001900D928A95E1F7F701908180E0F701BC
:101CA000E80FF11D208124AF8F5F9817C0F76701FF
:101CB000FCE3CF0ED11CF7018681813379F038F433
:101CC000833009F454C1813209F479C16CC1823383
:101CD00009F49BC0833309F472C165C1F7018781A0
:101CE000853021F1863009F449C0843009F080C084
:101CF000AE01465A5F4FBE0167597F4F82E191E0C6
:101D00000E94FF06612F70E080E090E04AE00E94B0
:101D10001D07812F0E948D0189834FE0BE01665A05
:101D20007F4FC6010E945E0711E063C0AE01455BB4
:101D30005F4FBE0167597F4F82E191E00E94FF062D
:101D4000812F90E0A0E0B0E04AE0BC01CD010E940C
:101D50001D07812F0E948D01982E081721F0602FFA
:101D6000812F0E94E3036AE070E080E090E00E942F
:101D7000DB01812F0E948D01998229C0AE01455E51
:101D80005F4FBE0167597F4F82E191E00E94FF06DD
:101D9000812F90E0A0E0B0E04AE0BC01CD010E94BC
:101DA0001D07812F0E948D01082F811102C061E063
:101DB00001C060E0812F0E94E3036AE070E080E0F0
:101DC00090E00E94DB01812F0E948D0109838A83AC
:101DD00041E751E0BA018EE591E00E94FF064DE631
:101DE00051E062E0CE0101960E94710B12E001C049
:101DF00010E0412FBE016F5F7F4FC6010E945E075A
:101E0000F701EF5BFF4F1082DBC08FE691E00E948D
:101E1000740682E191E00E947406CE018F589F4FB4
:101E20000E94740682E791E00E94740661E070E00F
:101E300080E090E022EF210F283018F060E070E0A1
:101E4000CB014AE00E941D07F7018781843019F019
:101E5000853091F085C0CE01865A9F4F0E9474064E
:101E6000612F70E080E090E04AE00E941D070E9430
:101E7000E406812F90E071C0CE01855B9F4F0E94E8
:101E80007406812F90E0A0E0B0E04AE0BC01CD01F3
:101E90000E941D070E94E406202E312C61E0812F54
:101EA0000E941304812E912C2114310409F448C09E
:101EB000FFEF2F16310409F445C0F401E852FF4F3B
:101EC000E491E330F9F048F4E130B9F0E230A1F503
:101ED00084B5806284BD08BD39C0E730E9F0E830E0
:101EE00019F1E43049F58091800080628093800090
:101EF00030928B0020928A0029C084B5806884BD0E
:101F000007BD24C08091800080688093800030925B
:101F10008900209288001AC08091B0008068809368
:101F2000B0000093B30012C08091B0008062809333
:101F3000B0000093B4000AC020E82216310414F463
:101F400060E001C061E0812F0E94E30364EF71E073
:101F500080E090E00E94DB01C4010E941F0301C0E9
:101F600080E0898341E0BE016F5F7F4F14C0F701BD
:101F70008781823021F580E791E00E94740682E13A
:101F800091E00E94740686E890E00E94F30640E12A
:101F9000BE01655C7F4FC6010E945E07F701EF5BE3
:101FA000FF4F10820CC040E1BE01655D7F4FC6014E
:101FB0000E945E0783E0F701EF5BFF4F808310E034
:101FC000F701A6AE8091A60285AF41E751E065E832
:101FD00071E082E191E00E94FF064BE352E0612F45
:101FE000CE0101960E94710B61E084E00E94E30340
:101FF000C7010E94590960E084E00E94E30316C013
:102000008081882399F081E091E00E94740682EC3F
:1020100090E00E94C306612F70E080E090E04AE00B
:102020000E941D0785EA90E00E94F30610920001CD
:102030000E941503CECC8CE391E09093940380939F
:10204000930383E993E00C944E011092F9021092ED
:10205000F80288EE93E0A0E0B0E08093FA0290935B
:10206000FB02A093FC02B093FD022AE231E0309320
:10207000F7022093F60225EC30E03093030320931F
:10208000020324EC30E0309305032093040320EC9A
:1020900030E0309307032093060321EC30E03093C7
:1020A00009032093080322EC30E030930B032093C4
:1020B0000A0326EC30E030930D0320930C031092BA
:1020C0000F0310921003109211031092120310923A
:1020D000A7041092A8041092A9041092AA0440ED3B
:1020E00057E060E070E04093AE045093AF0460931B
:1020F000B0047093B10410929603109295038093EC
:10210000970390939803A0939903B0939A038CE359
:1021100091E090939403809393031092AA031092FA
:10212000A9031092AC031092AB031092AE0310926D
:10213000AD031092B0031092AF036091B1036E7FB4
:102140006D7F6093B1036695617081E0682782E0DE
:102150000E94E30361E082E00E941304E2E3F2E004
:10216000E491E093A303EEE1F2E0E491F0E0EE0FFE
:10217000FF1FE85FFD4F859194919093A503809395
:10218000A40360E083E00E9413048091B10381FD09
:1021900004C061E083E00E94E30383E080939F0337
:1021A000E3E3F2E0E491E093A003EFE1F2E0E491F5
:1021B000F0E0EE0FFF1FEE5EFD4F8591949190933E
:1021C000A2038093A1030895AA1BBB1B51E107C082
:1021D000AA1FBB1FA617B70710F0A61BB70B881FB7
:1021E000991F5A95A9F780959095BC01CD01089546
:1021F00097FB072E16F4009407D077FD09D00E94B4
:10220000E41007FC05D03EF4909581959F4F08950A
:10221000709561957F4F0895A1E21A2EAA1BBB1BF2
:10222000FD010DC0AA1FBB1FEE1FFF1FA217B307A2
:10223000E407F50720F0A21BB30BE40BF50B661FB8
:10224000771F881F991F1A9469F76095709580957C
:1022500090959B01AC01BD01CF010895EE0FFF1FCA
:102260000590F491E02D099481E090E0F8940C94AD
:102270004111F999FECF92BD81BDF89A992780B599
:10228000089511E0C3E2D1E004C0FE010E942E11C6
:0C2290002196C432D107C9F7F894FFCFA3
:10229C00010D0A5B59595959592D7878785D202DC3
:1022AC0020000A2020202000700273027C0284028D
:1022BC008D0295029D0200000000AC021502440242
:1022CC00F30275025302670200000000D5051502E7
:1022DC004102D40529064106BC05456D756C6100AB
:1022EC0052582D706F6C6C00536C617665002062D7
:1022FC0065666F72652F616674657220002F000A27
:10230C000A002069732070696E20416E616C6F67E2
:10231C003F202D3E0072657475726E696E672044A5
:10232C006174613A20002E2E2E2E2E2E0045525214
:10233C004F523A202E2E2E2E2E2E2E2E206F6363D1
:10234C0075727265642100506F6C6C696E672061E8
:10235C006E737765722100554E4B4E4F574E20636E
:10236C006F6D6D616E6400414E414C4F47004449A6
:10237C00474954414C00202D207265616420207027
:10238C00696E3A2000202D2077726974652070697F
:10239C006E3A2000202D20746F67676C6520706981
:1023AC006E3A2000303132333435363738394142C9
:1023BC004344454600784D69747465642043524328
:1023CC00203078203A20000A202020200054582D5C
:1023DC006C6962000D0A0D0A006C69625245435625
:1023EC00202D20756E65787065787465642062792F
:1023FC0074652873293A200052582D646174610069
:10240C004F4B004F564552464C4F57004241442DBE
:10241C00435243004241442D434841520054494DDC
:10242C00454F5554005041594C4F4144004445428E
:04243C005547000000
:00000001FF
